{
  "_format": "hh-sol-artifact-1",
  "contractName": "AuctionClaim",
  "sourceName": "contracts/core/AuctionClaim.sol",
  "abi": [
    {
      "inputs": [
        {
          "internalType": "address",
          "name": "admin",
          "type": "address"
        }
      ],
      "stateMutability": "nonpayable",
      "type": "constructor"
    },
    {
      "inputs": [],
      "name": "AccessControlBadConfirmation",
      "type": "error"
    },
    {
      "inputs": [
        {
          "internalType": "address",
          "name": "account",
          "type": "address"
        },
        {
          "internalType": "bytes32",
          "name": "neededRole",
          "type": "bytes32"
        }
      ],
      "name": "AccessControlUnauthorizedAccount",
      "type": "error"
    },
    {
      "inputs": [
        {
          "internalType": "address",
          "name": "sender",
          "type": "address"
        },
        {
          "internalType": "uint256",
          "name": "tokenId",
          "type": "uint256"
        },
        {
          "internalType": "address",
          "name": "owner",
          "type": "address"
        }
      ],
      "name": "ERC721IncorrectOwner",
      "type": "error"
    },
    {
      "inputs": [
        {
          "internalType": "address",
          "name": "operator",
          "type": "address"
        },
        {
          "internalType": "uint256",
          "name": "tokenId",
          "type": "uint256"
        }
      ],
      "name": "ERC721InsufficientApproval",
      "type": "error"
    },
    {
      "inputs": [
        {
          "internalType": "address",
          "name": "approver",
          "type": "address"
        }
      ],
      "name": "ERC721InvalidApprover",
      "type": "error"
    },
    {
      "inputs": [
        {
          "internalType": "address",
          "name": "operator",
          "type": "address"
        }
      ],
      "name": "ERC721InvalidOperator",
      "type": "error"
    },
    {
      "inputs": [
        {
          "internalType": "address",
          "name": "owner",
          "type": "address"
        }
      ],
      "name": "ERC721InvalidOwner",
      "type": "error"
    },
    {
      "inputs": [
        {
          "internalType": "address",
          "name": "receiver",
          "type": "address"
        }
      ],
      "name": "ERC721InvalidReceiver",
      "type": "error"
    },
    {
      "inputs": [
        {
          "internalType": "address",
          "name": "sender",
          "type": "address"
        }
      ],
      "name": "ERC721InvalidSender",
      "type": "error"
    },
    {
      "inputs": [
        {
          "internalType": "uint256",
          "name": "tokenId",
          "type": "uint256"
        }
      ],
      "name": "ERC721NonexistentToken",
      "type": "error"
    },
    {
      "inputs": [],
      "name": "InvalidInput",
      "type": "error"
    },
    {
      "anonymous": false,
      "inputs": [
        {
          "indexed": true,
          "internalType": "address",
          "name": "owner",
          "type": "address"
        },
        {
          "indexed": true,
          "internalType": "address",
          "name": "approved",
          "type": "address"
        },
        {
          "indexed": true,
          "internalType": "uint256",
          "name": "tokenId",
          "type": "uint256"
        }
      ],
      "name": "Approval",
      "type": "event"
    },
    {
      "anonymous": false,
      "inputs": [
        {
          "indexed": true,
          "internalType": "address",
          "name": "owner",
          "type": "address"
        },
        {
          "indexed": true,
          "internalType": "address",
          "name": "operator",
          "type": "address"
        },
        {
          "indexed": false,
          "internalType": "bool",
          "name": "approved",
          "type": "bool"
        }
      ],
      "name": "ApprovalForAll",
      "type": "event"
    },
    {
      "anonymous": false,
      "inputs": [
        {
          "indexed": true,
          "internalType": "uint256",
          "name": "tokenId",
          "type": "uint256"
        },
        {
          "indexed": true,
          "internalType": "address",
          "name": "winner",
          "type": "address"
        },
        {
          "indexed": false,
          "internalType": "address",
          "name": "sourceContract",
          "type": "address"
        },
        {
          "indexed": false,
          "internalType": "uint256",
          "name": "sourceId",
          "type": "uint256"
        },
        {
          "indexed": false,
          "internalType": "string",
          "name": "claimType",
          "type": "string"
        }
      ],
      "name": "ClaimMinted",
      "type": "event"
    },
    {
      "anonymous": false,
      "inputs": [
        {
          "indexed": true,
          "internalType": "bytes32",
          "name": "role",
          "type": "bytes32"
        },
        {
          "indexed": true,
          "internalType": "bytes32",
          "name": "previousAdminRole",
          "type": "bytes32"
        },
        {
          "indexed": true,
          "internalType": "bytes32",
          "name": "newAdminRole",
          "type": "bytes32"
        }
      ],
      "name": "RoleAdminChanged",
      "type": "event"
    },
    {
      "anonymous": false,
      "inputs": [
        {
          "indexed": true,
          "internalType": "bytes32",
          "name": "role",
          "type": "bytes32"
        },
        {
          "indexed": true,
          "internalType": "address",
          "name": "account",
          "type": "address"
        },
        {
          "indexed": true,
          "internalType": "address",
          "name": "sender",
          "type": "address"
        }
      ],
      "name": "RoleGranted",
      "type": "event"
    },
    {
      "anonymous": false,
      "inputs": [
        {
          "indexed": true,
          "internalType": "bytes32",
          "name": "role",
          "type": "bytes32"
        },
        {
          "indexed": true,
          "internalType": "address",
          "name": "account",
          "type": "address"
        },
        {
          "indexed": true,
          "internalType": "address",
          "name": "sender",
          "type": "address"
        }
      ],
      "name": "RoleRevoked",
      "type": "event"
    },
    {
      "anonymous": false,
      "inputs": [
        {
          "indexed": true,
          "internalType": "address",
          "name": "from",
          "type": "address"
        },
        {
          "indexed": true,
          "internalType": "address",
          "name": "to",
          "type": "address"
        },
        {
          "indexed": true,
          "internalType": "uint256",
          "name": "tokenId",
          "type": "uint256"
        }
      ],
      "name": "Transfer",
      "type": "event"
    },
    {
      "inputs": [],
      "name": "DEFAULT_ADMIN_ROLE",
      "outputs": [
        {
          "internalType": "bytes32",
          "name": "",
          "type": "bytes32"
        }
      ],
      "stateMutability": "view",
      "type": "function"
    },
    {
      "inputs": [],
      "name": "MINTER_ROLE",
      "outputs": [
        {
          "internalType": "bytes32",
          "name": "",
          "type": "bytes32"
        }
      ],
      "stateMutability": "view",
      "type": "function"
    },
    {
      "inputs": [
        {
          "internalType": "address",
          "name": "to",
          "type": "address"
        },
        {
          "internalType": "uint256",
          "name": "tokenId",
          "type": "uint256"
        }
      ],
      "name": "approve",
      "outputs": [],
      "stateMutability": "nonpayable",
      "type": "function"
    },
    {
      "inputs": [
        {
          "internalType": "address",
          "name": "owner",
          "type": "address"
        }
      ],
      "name": "balanceOf",
      "outputs": [
        {
          "internalType": "uint256",
          "name": "",
          "type": "uint256"
        }
      ],
      "stateMutability": "view",
      "type": "function"
    },
    {
      "inputs": [
        {
          "internalType": "uint256",
          "name": "",
          "type": "uint256"
        }
      ],
      "name": "claims",
      "outputs": [
        {
          "internalType": "address",
          "name": "sourceContract",
          "type": "address"
        },
        {
          "internalType": "uint256",
          "name": "sourceId",
          "type": "uint256"
        },
        {
          "internalType": "string",
          "name": "claimType",
          "type": "string"
        },
        {
          "internalType": "uint256",
          "name": "mintedAt",
          "type": "uint256"
        }
      ],
      "stateMutability": "view",
      "type": "function"
    },
    {
      "inputs": [
        {
          "internalType": "uint256",
          "name": "tokenId",
          "type": "uint256"
        }
      ],
      "name": "getApproved",
      "outputs": [
        {
          "internalType": "address",
          "name": "",
          "type": "address"
        }
      ],
      "stateMutability": "view",
      "type": "function"
    },
    {
      "inputs": [
        {
          "internalType": "uint256",
          "name": "tokenId",
          "type": "uint256"
        }
      ],
      "name": "getClaim",
      "outputs": [
        {
          "internalType": "address",
          "name": "sourceContract",
          "type": "address"
        },
        {
          "internalType": "uint256",
          "name": "sourceId",
          "type": "uint256"
        },
        {
          "internalType": "string",
          "name": "claimType",
          "type": "string"
        },
        {
          "internalType": "uint256",
          "name": "mintedAt",
          "type": "uint256"
        }
      ],
      "stateMutability": "view",
      "type": "function"
    },
    {
      "inputs": [
        {
          "internalType": "bytes32",
          "name": "role",
          "type": "bytes32"
        }
      ],
      "name": "getRoleAdmin",
      "outputs": [
        {
          "internalType": "bytes32",
          "name": "",
          "type": "bytes32"
        }
      ],
      "stateMutability": "view",
      "type": "function"
    },
    {
      "inputs": [
        {
          "internalType": "bytes32",
          "name": "role",
          "type": "bytes32"
        },
        {
          "internalType": "address",
          "name": "account",
          "type": "address"
        }
      ],
      "name": "grantRole",
      "outputs": [],
      "stateMutability": "nonpayable",
      "type": "function"
    },
    {
      "inputs": [
        {
          "internalType": "bytes32",
          "name": "role",
          "type": "bytes32"
        },
        {
          "internalType": "address",
          "name": "account",
          "type": "address"
        }
      ],
      "name": "hasRole",
      "outputs": [
        {
          "internalType": "bool",
          "name": "",
          "type": "bool"
        }
      ],
      "stateMutability": "view",
      "type": "function"
    },
    {
      "inputs": [
        {
          "internalType": "address",
          "name": "owner",
          "type": "address"
        },
        {
          "internalType": "address",
          "name": "operator",
          "type": "address"
        }
      ],
      "name": "isApprovedForAll",
      "outputs": [
        {
          "internalType": "bool",
          "name": "",
          "type": "bool"
        }
      ],
      "stateMutability": "view",
      "type": "function"
    },
    {
      "inputs": [
        {
          "internalType": "address",
          "name": "winner",
          "type": "address"
        },
        {
          "internalType": "address",
          "name": "sourceContract",
          "type": "address"
        },
        {
          "internalType": "uint256",
          "name": "sourceId",
          "type": "uint256"
        },
        {
          "internalType": "string",
          "name": "claimType",
          "type": "string"
        }
      ],
      "name": "mint",
      "outputs": [
        {
          "internalType": "uint256",
          "name": "tokenId",
          "type": "uint256"
        }
      ],
      "stateMutability": "nonpayable",
      "type": "function"
    },
    {
      "inputs": [],
      "name": "name",
      "outputs": [
        {
          "internalType": "string",
          "name": "",
          "type": "string"
        }
      ],
      "stateMutability": "view",
      "type": "function"
    },
    {
      "inputs": [],
      "name": "nextTokenId",
      "outputs": [
        {
          "internalType": "uint256",
          "name": "",
          "type": "uint256"
        }
      ],
      "stateMutability": "view",
      "type": "function"
    },
    {
      "inputs": [
        {
          "internalType": "uint256",
          "name": "tokenId",
          "type": "uint256"
        }
      ],
      "name": "ownerOf",
      "outputs": [
        {
          "internalType": "address",
          "name": "",
          "type": "address"
        }
      ],
      "stateMutability": "view",
      "type": "function"
    },
    {
      "inputs": [
        {
          "internalType": "bytes32",
          "name": "role",
          "type": "bytes32"
        },
        {
          "internalType": "address",
          "name": "callerConfirmation",
          "type": "address"
        }
      ],
      "name": "renounceRole",
      "outputs": [],
      "stateMutability": "nonpayable",
      "type": "function"
    },
    {
      "inputs": [
        {
          "internalType": "bytes32",
          "name": "role",
          "type": "bytes32"
        },
        {
          "internalType": "address",
          "name": "account",
          "type": "address"
        }
      ],
      "name": "revokeRole",
      "outputs": [],
      "stateMutability": "nonpayable",
      "type": "function"
    },
    {
      "inputs": [
        {
          "internalType": "address",
          "name": "from",
          "type": "address"
        },
        {
          "internalType": "address",
          "name": "to",
          "type": "address"
        },
        {
          "internalType": "uint256",
          "name": "tokenId",
          "type": "uint256"
        }
      ],
      "name": "safeTransferFrom",
      "outputs": [],
      "stateMutability": "nonpayable",
      "type": "function"
    },
    {
      "inputs": [
        {
          "internalType": "address",
          "name": "from",
          "type": "address"
        },
        {
          "internalType": "address",
          "name": "to",
          "type": "address"
        },
        {
          "internalType": "uint256",
          "name": "tokenId",
          "type": "uint256"
        },
        {
          "internalType": "bytes",
          "name": "data",
          "type": "bytes"
        }
      ],
      "name": "safeTransferFrom",
      "outputs": [],
      "stateMutability": "nonpayable",
      "type": "function"
    },
    {
      "inputs": [
        {
          "internalType": "address",
          "name": "operator",
          "type": "address"
        },
        {
          "internalType": "bool",
          "name": "approved",
          "type": "bool"
        }
      ],
      "name": "setApprovalForAll",
      "outputs": [],
      "stateMutability": "nonpayable",
      "type": "function"
    },
    {
      "inputs": [
        {
          "internalType": "bytes4",
          "name": "interfaceId",
          "type": "bytes4"
        }
      ],
      "name": "supportsInterface",
      "outputs": [
        {
          "internalType": "bool",
          "name": "",
          "type": "bool"
        }
      ],
      "stateMutability": "view",
      "type": "function"
    },
    {
      "inputs": [],
      "name": "symbol",
      "outputs": [
        {
          "internalType": "string",
          "name": "",
          "type": "string"
        }
      ],
      "stateMutability": "view",
      "type": "function"
    },
    {
      "inputs": [
        {
          "internalType": "uint256",
          "name": "tokenId",
          "type": "uint256"
        }
      ],
      "name": "tokenURI",
      "outputs": [
        {
          "internalType": "string",
          "name": "",
          "type": "string"
        }
      ],
      "stateMutability": "view",
      "type": "function"
    },
    {
      "inputs": [],
      "name": "totalClaims",
      "outputs": [
        {
          "internalType": "uint256",
          "name": "",
          "type": "uint256"
        }
      ],
      "stateMutability": "view",
      "type": "function"
    },
    {
      "inputs": [
        {
          "internalType": "address",
          "name": "from",
          "type": "address"
        },
        {
          "internalType": "address",
          "name": "to",
          "type": "address"
        },
        {
          "internalType": "uint256",
          "name": "tokenId",
          "type": "uint256"
        }
      ],
      "name": "transferFrom",
      "outputs": [],
      "stateMutability": "nonpayable",
      "type": "function"
    }
  ],
  "bytecode": "0x60803461030d57601f19906001600160401b0390601f9061180f38819003838101861683018581118482101761023b5783928291604052833960209283918101031261030d5751926001600160a01b0384169283850361030d57610061610311565b92600f84526e43697068657244455820436c61696d60881b81850152610085610311565b966005885264434c41494d60d81b82890152845184811161023b575f546001968782811c92168015610303575b8583101461021d5781868493116102b5575b50849086831160011461025a575f9261024f575b50505f19600383901b1c191690861b175f555b875193841161023b5784548581811c91168015610231575b8382101461021d578381116101da575b508192841160011461017b57505081929394955f92610170575b50505f19600383901b1c191690821b1790555b1561015e5761014e90610330565b5060405161143f90816103b08239f35b60405163b4fa3fb360e01b8152600490fd5b015190505f8061012d565b5f858152828120918516989193925b8982106101c35750508385969798106101ab575b505050811b019055610140565b01515f1960f88460031b161c191690555f808061019e565b80878596829496860151815501950193019061018a565b855f52825f208480870160051c820192858810610214575b0160051c019086905b828110610209575050610113565b5f81550186906101fb565b925081926101f2565b634e487b7160e01b5f52602260045260245ffd5b90607f1690610103565b634e487b7160e01b5f52604160045260245ffd5b015190505f806100d8565b9084899416915f8052865f20925f5b8882821061029f5750508411610287575b505050811b015f556100eb565b01515f1960f88460031b161c191690555f808061027a565b8385015186558c97909501949384019301610269565b9091505f8052845f208680850160051c8201928786106102fa575b918a91869594930160051c01915b8281106102ec5750506100c4565b5f81558594508a91016102de565b925081926102d0565b91607f16916100b2565b5f80fd5b60408051919082016001600160401b0381118382101761023b57604052565b6001600160a01b03165f8181525f805160206117ef833981519152602052604090205460ff166103aa575f8181525f805160206117ef83398151915260205260408120805460ff191660011790553391907f2f8788117e7eff1d82e926ec794901d17c78024a50270940304540a733656f0d8180a4600190565b505f9056fe6080806040526004361015610012575f80fd5b5f3560e01c90816301ffc9a714610d2f5750806306fdde0314610c88578063081812fc14610c4c578063095ea7b314610b6b57806323b872dd14610b54578063248a9ca314610b275780632f2ff15d14610aea57806336568abe14610aa357806341c613831461098a57806342842e0e14610a7c5780635aef244714610a2d5780636352211e146109fd57806370a08231146109a757806375794a3c1461098a57806391d148541461094157806395d89b4114610863578063a217fddf14610849578063a22cb4651461078a578063a888c2cd1461073a578063b85cbc79146102b3578063b88d4fde14610253578063c87b56dd146101fe578063d5391393146101c4578063d547741f146101855763e985e9c51461012f575f80fd5b3461018157604036600319011261018157610148610dd8565b610150610dee565b9060018060a01b038091165f52600560205260405f2091165f52602052602060ff60405f2054166040519015158152f35b5f80fd5b34610181576040366003190112610181576101c26004356101a4610dee565b90805f5260066020526101bd600160405f2001546112f5565b611395565b005b34610181575f3660031901126101815760206040517f9f2df0fed2c77648de5860a4cc508cd0818c85b8b8a1ab4ceeef8d981c8956a68152f35b346101815760203660031901126101815761021a6004356112bb565b505f60405161022881610ea0565b5261024f60405161023881610ea0565b5f8152604051918291602083526020830190610db4565b0390f35b346101815760803660031901126101815761026c610dd8565b610274610dee565b6064359167ffffffffffffffff83116101815736602384011215610181576102a96101c2933690602481600401359101610f9c565b916044359161116d565b34610181576080366003190112610181576102cc610dd8565b6102d4610dee565b60643567ffffffffffffffff811161018157366023820112156101815767ffffffffffffffff8160040135116101815736602482600401358301011161018157335f9081527f3195c024b2ddd6d9b8f6c836aa52f67fe69376c8903d009b80229b3ce4425f5160205260409020547f9f2df0fed2c77648de5860a4cc508cd0818c85b8b8a1ab4ceeef8d981c8956a69060ff161561071c57506001600160a01b0383161561070a576001600160a01b0382161561070a57600854915f1983146106f657600183016008555f838152600260205260409020546001600160a01b0316801515908490826106c3575b6001600160a01b0387165f818152600360209081526040808320805460010190558583526002909152812080546001600160a01b031916831790559091907fddf252ad1be2c89b69c2b068fc378daa952ba7f163c4a11628f55a4df523b3ef9080a46106ab5760405180608081011067ffffffffffffffff60808301111761069757608081016040526001600160a01b0382168152604435602082015261047036600485013560248601610f9c565b6040820152426060820152835f52600760205260405f209060018060a01b038151166bffffffffffffffffffffffff60a01b83541617825560208101516001830155604081015180519067ffffffffffffffff8211610697576104d66002850154610e68565b601f8111610653575b509160209793918795938990601f83116001146105b6577fef1e43b199bb370e5f1a532bdd40cf16a38a688cd4369792819d0194259adb3796959383608096946003946060945f926105ab575b50508160011b915f1990861b1c19161760028501555b015191015560405192839160018060a01b03168252604435898301526060604083015286600401356060830152866004013560248801848401375f6004909701358281018401979097526001600160a01b031695601f01601f19168101030190a3604051908152f35b015190508e8061052c565b60028594939298979695015f528a5f20905f5b601f19841681106106395750926001836060937fef1e43b199bb370e5f1a532bdd40cf16a38a688cd4369792819d0194259adb379a9b6080999897600397601f19811610610622575b505050811b016002850155610542565b01515f1983881b60f8161c191690558e8080610612565b818a01518355988c01988b98506001909201918c016105c9565b600285015f5260205f20601f840160051c810160208510610690575b601f830160051c820181106106855750506104df565b5f815560010161066f565b508061066f565b634e487b7160e01b5f52604160045260245ffd5b6040516339e3563760e11b81525f6004820152602490fd5b5f82815260046020526040902080546001600160a01b0319169055805f52600360205260405f205f1981540190556103c1565b634e487b7160e01b5f52601160045260245ffd5b60405163b4fa3fb360e01b8152600490fd5b6044906040519063e2517d3f60e01b82523360048301526024820152fd5b34610181576020366003190112610181576004355f52600760205260405f2060018060a01b0381541661024f600183015492600361077a60028301610ede565b9101549060405194859485610e39565b34610181576040366003190112610181576107a3610dd8565b60243590811515809203610181573315610831576001600160a01b031690811561081857335f52600560205260405f20825f5260205260405f2060ff1981541660ff83161790556040519081527f17307eab39ab6107e8899845ad3d59bd9653f200f220920489ca2b5937696c3160203392a3005b604051630b61174360e31b815260048101839052602490fd5b60405163a9fbf51f60e01b81525f6004820152602490fd5b34610181575f3660031901126101815760206040515f8152f35b34610181575f366003190112610181576040515f6001826001549261088784610e68565b92838352602094856001821691825f146109215750506001146108c6575b506108b292500383610ebc565b61024f604051928284938452830190610db4565b84915060015f527fb10e2d527612073b26eecdfd717e6a320cf44b4afac2b0732d9fcbe2b7fa0cf6905f915b8583106109095750506108b29350820101856108a5565b805483890185015287945086939092019181016108f2565b60ff1916858201526108b295151560051b85010192508791506108a59050565b346101815760403660031901126101815761095a610dee565b6004355f52600660205260405f209060018060a01b03165f52602052602060ff60405f2054166040519015158152f35b34610181575f366003190112610181576020600854604051908152f35b34610181576020366003190112610181576001600160a01b036109c8610dd8565b1680156109e5575f526003602052602060405f2054604051908152f35b6040516322718ad960e21b81525f6004820152602490fd5b34610181576020366003190112610181576020610a1b6004356112bb565b6040516001600160a01b039091168152f35b34610181576020366003190112610181576004355f52600760205260405f2060018060a01b0381541661024f600183015492610a70600260038301549201610ede565b60405194859485610e39565b34610181576101c2610a8d36610e04565b9060405192610a9b84610ea0565b5f845261116d565b3461018157604036600319011261018157610abc610dee565b336001600160a01b03821603610ad8576101c290600435611395565b60405163334bd91960e11b8152600490fd5b34610181576040366003190112610181576101c2600435610b09610dee565b90805f526006602052610b22600160405f2001546112f5565b611317565b34610181576020366003190112610181576004355f5260066020526020600160405f200154604051908152f35b34610181576101c2610b6536610e04565b91610fd2565b3461018157604036600319011261018157610b84610dd8565b602435610b90816112bb565b33151580610c39575b80610c10575b610bf8576001600160a01b039283169282918491167f8c5be1e5ebec7d5bd14f71427d1e84f3dd0314c0f7b2291e5b200ac8c7c3b9255f80a45f90815260046020526040902080546001600160a01b0319169091179055005b60405163a9fbf51f60e01b8152336004820152602490fd5b5060018060a01b0381165f52600560205260405f20335f5260205260ff60405f20541615610b9f565b506001600160a01b038116331415610b99565b3461018157602036600319011261018157600435610c69816112bb565b505f526004602052602060018060a01b0360405f205416604051908152f35b34610181575f366003190112610181576040515f80549082610ca983610e68565b91828252602093600190856001821691825f14610921575050600114610cd657506108b292500383610ebc565b5f808052859250907f290decd9548b62a8d60345a988386fc84ba6bc95484008f6362f93160ef3e5635b858310610d175750506108b29350820101856108a5565b80548389018501528794508693909201918101610d00565b34610181576020366003190112610181576004359063ffffffff60e01b821680920361018157602091637965db0b60e01b8114908115610d71575b5015158152f35b6380ac58cd60e01b811491508115610da3575b8115610d92575b5083610d6a565b6301ffc9a760e01b14905083610d8b565b635b5e139f60e01b81149150610d84565b805180835260209291819084018484015e5f828201840152601f01601f1916010190565b600435906001600160a01b038216820361018157565b602435906001600160a01b038216820361018157565b6060906003190112610181576001600160a01b0390600435828116810361018157916024359081168103610181579060443590565b949392606092610e639260018060a01b031687526020870152608060408701526080860190610db4565b930152565b90600182811c92168015610e96575b6020831014610e8257565b634e487b7160e01b5f52602260045260245ffd5b91607f1691610e77565b6020810190811067ffffffffffffffff82111761069757604052565b90601f8019910116810190811067ffffffffffffffff82111761069757604052565b9060405191825f8254610ef081610e68565b908184526020946001916001811690815f14610f5e5750600114610f20575b505050610f1e92500383610ebc565b565b5f90815285812095935091905b818310610f46575050610f1e93508201015f8080610f0f565b85548884018501529485019487945091830191610f2d565b92505050610f1e94925060ff191682840152151560051b8201015f8080610f0f565b67ffffffffffffffff811161069757601f01601f191660200190565b929192610fa882610f80565b91610fb66040519384610ebc565b829481845281830111610181578281602093845f960137010152565b6001600160a01b03918216929091831561115557815f52602092600284528260409583875f20541695331515806110c3575b5060029087611092575b825f5260038152885f2060018154019055835f5252865f20816bffffffffffffffffffffffff60a01b825416179055857fddf252ad1be2c89b69c2b068fc378daa952ba7f163c4a11628f55a4df523b3ef5f80a416928383036110715750505050565b6064945051926364283d7b60e01b8452600484015260248301526044820152fd5b5f84815260046020526040812080546001600160a01b03191690558881526003825289902080545f1901905561100e565b9192509080611114575b156110db579084915f611004565b8685876110f8576024915190637e27328960e01b82526004820152fd5b604491519063177e802f60e01b82523360048301526024820152fd5b503386148015611139575b806110cd5750845f52600481523384885f205416146110cd565b50855f5260058152865f20335f52815260ff875f20541661111f565b604051633250574960e11b81525f6004820152602490fd5b919261117a848385610fd2565b813b611187575b50505050565b604051630a85bd0160e11b8082523360048301526001600160a01b039485166024830152604482019590955260806064820152602095939092169391908590829081906111d8906084830190610db4565b03815f885af15f918161127b575b50611245575050503d5f1461123d573d9161120083610f80565b9261120e6040519485610ebc565b83523d5f8285013e5b8251928361123857604051633250574960e11b815260048101849052602490fd5b019050fd5b606091611217565b9193506001600160e01b03199091160361126357505f808080611181565b60249060405190633250574960e11b82526004820152fd5b9091508581813d83116112b4575b6112938183610ebc565b8101031261018157516001600160e01b03198116810361018157905f6111e6565b503d611289565b5f818152600260205260409020546001600160a01b03169081156112dd575090565b60249060405190637e27328960e01b82526004820152fd5b805f52600660205260405f20335f5260205260ff60405f2054161561071c5750565b90815f52600660205260405f209060018060a01b031690815f5260205260ff60405f205416155f1461138f57815f52600660205260405f20815f5260205260405f20600160ff1982541617905533917f2f8788117e7eff1d82e926ec794901d17c78024a50270940304540a733656f0d5f80a4600190565b50505f90565b90815f52600660205260405f209060018060a01b031690815f5260205260ff60405f2054165f1461138f57815f52600660205260405f20815f5260205260405f2060ff19815416905533917ff6391f5c32d9c69d2a47ea670b442974b53935d1edc7fd64eb21e047a839171b5f80a460019056fea2646970667358221220c29ab73e733e975f8da5fb91c0be9fc0f89042caecc491ccc7116730f6362e1c64736f6c6343000819003354cdd369e4e8a8515e52ca72ec816c2101831ad1f18bf44102ed171459c9b4f8",
  "linkReferences": {},
  "deployedLinkReferences": {}
}