{
  "_format": "hh-sol-artifact-1",
  "contractName": "TokenVesting",
  "sourceName": "contracts/core/TokenVesting.sol",
  "abi": [
    {
      "inputs": [
        {
          "internalType": "address",
          "name": "_vault",
          "type": "address"
        },
        {
          "internalType": "address",
          "name": "_admin",
          "type": "address"
        }
      ],
      "stateMutability": "nonpayable",
      "type": "constructor"
    },
    {
      "inputs": [],
      "name": "InvalidInput",
      "type": "error"
    },
    {
      "inputs": [],
      "name": "InvalidState",
      "type": "error"
    },
    {
      "inputs": [],
      "name": "ReentrancyGuardReentrantCall",
      "type": "error"
    },
    {
      "inputs": [
        {
          "internalType": "int32",
          "name": "value",
          "type": "int32"
        }
      ],
      "name": "SecurityZoneOutOfBounds",
      "type": "error"
    },
    {
      "inputs": [],
      "name": "Unauthorized",
      "type": "error"
    },
    {
      "anonymous": false,
      "inputs": [
        {
          "indexed": true,
          "internalType": "address",
          "name": "creator",
          "type": "address"
        }
      ],
      "name": "CreatorAuthorized",
      "type": "event"
    },
    {
      "anonymous": false,
      "inputs": [
        {
          "indexed": true,
          "internalType": "uint256",
          "name": "scheduleId",
          "type": "uint256"
        },
        {
          "indexed": true,
          "internalType": "address",
          "name": "beneficiary",
          "type": "address"
        }
      ],
      "name": "TokensClaimed",
      "type": "event"
    },
    {
      "anonymous": false,
      "inputs": [
        {
          "indexed": true,
          "internalType": "uint256",
          "name": "scheduleId",
          "type": "uint256"
        },
        {
          "indexed": true,
          "internalType": "address",
          "name": "beneficiary",
          "type": "address"
        },
        {
          "indexed": false,
          "internalType": "uint256",
          "name": "cliffEnd",
          "type": "uint256"
        },
        {
          "indexed": false,
          "internalType": "uint256",
          "name": "vestingEnd",
          "type": "uint256"
        }
      ],
      "name": "VestingCreated",
      "type": "event"
    },
    {
      "anonymous": false,
      "inputs": [
        {
          "indexed": true,
          "internalType": "uint256",
          "name": "scheduleId",
          "type": "uint256"
        }
      ],
      "name": "VestingRevoked",
      "type": "event"
    },
    {
      "inputs": [],
      "name": "admin",
      "outputs": [
        {
          "internalType": "address",
          "name": "",
          "type": "address"
        }
      ],
      "stateMutability": "view",
      "type": "function"
    },
    {
      "inputs": [
        {
          "internalType": "address",
          "name": "creator",
          "type": "address"
        }
      ],
      "name": "authorizeCreator",
      "outputs": [],
      "stateMutability": "nonpayable",
      "type": "function"
    },
    {
      "inputs": [
        {
          "internalType": "address",
          "name": "",
          "type": "address"
        }
      ],
      "name": "authorizedCreators",
      "outputs": [
        {
          "internalType": "bool",
          "name": "",
          "type": "bool"
        }
      ],
      "stateMutability": "view",
      "type": "function"
    },
    {
      "inputs": [
        {
          "internalType": "address",
          "name": "",
          "type": "address"
        },
        {
          "internalType": "uint256",
          "name": "",
          "type": "uint256"
        }
      ],
      "name": "beneficiarySchedules",
      "outputs": [
        {
          "internalType": "uint256",
          "name": "",
          "type": "uint256"
        }
      ],
      "stateMutability": "view",
      "type": "function"
    },
    {
      "inputs": [
        {
          "internalType": "uint256",
          "name": "scheduleId",
          "type": "uint256"
        }
      ],
      "name": "claimVested",
      "outputs": [],
      "stateMutability": "nonpayable",
      "type": "function"
    },
    {
      "inputs": [
        {
          "internalType": "address",
          "name": "beneficiary",
          "type": "address"
        },
        {
          "internalType": "address",
          "name": "token",
          "type": "address"
        },
        {
          "internalType": "euint64",
          "name": "encTotalAmount",
          "type": "bytes32"
        },
        {
          "internalType": "uint256",
          "name": "cliffDuration",
          "type": "uint256"
        },
        {
          "internalType": "uint256",
          "name": "vestingDuration",
          "type": "uint256"
        }
      ],
      "name": "createSchedule",
      "outputs": [
        {
          "internalType": "uint256",
          "name": "scheduleId",
          "type": "uint256"
        }
      ],
      "stateMutability": "nonpayable",
      "type": "function"
    },
    {
      "inputs": [
        {
          "internalType": "address",
          "name": "beneficiary",
          "type": "address"
        }
      ],
      "name": "getBeneficiarySchedules",
      "outputs": [
        {
          "internalType": "uint256[]",
          "name": "",
          "type": "uint256[]"
        }
      ],
      "stateMutability": "view",
      "type": "function"
    },
    {
      "inputs": [
        {
          "internalType": "uint256",
          "name": "scheduleId",
          "type": "uint256"
        }
      ],
      "name": "getMyClaimed",
      "outputs": [
        {
          "internalType": "euint64",
          "name": "",
          "type": "bytes32"
        }
      ],
      "stateMutability": "view",
      "type": "function"
    },
    {
      "inputs": [
        {
          "internalType": "uint256",
          "name": "scheduleId",
          "type": "uint256"
        }
      ],
      "name": "getMyVestedAmount",
      "outputs": [
        {
          "internalType": "euint64",
          "name": "",
          "type": "bytes32"
        }
      ],
      "stateMutability": "view",
      "type": "function"
    },
    {
      "inputs": [
        {
          "internalType": "uint256",
          "name": "scheduleId",
          "type": "uint256"
        }
      ],
      "name": "getSchedule",
      "outputs": [
        {
          "internalType": "address",
          "name": "beneficiary",
          "type": "address"
        },
        {
          "internalType": "address",
          "name": "token",
          "type": "address"
        },
        {
          "internalType": "address",
          "name": "granter",
          "type": "address"
        },
        {
          "internalType": "uint256",
          "name": "cliffEnd",
          "type": "uint256"
        },
        {
          "internalType": "uint256",
          "name": "vestingEnd",
          "type": "uint256"
        },
        {
          "internalType": "bool",
          "name": "revoked",
          "type": "bool"
        }
      ],
      "stateMutability": "view",
      "type": "function"
    },
    {
      "inputs": [
        {
          "internalType": "uint256",
          "name": "scheduleId",
          "type": "uint256"
        }
      ],
      "name": "getVestedPercentage",
      "outputs": [
        {
          "internalType": "uint64",
          "name": "",
          "type": "uint64"
        }
      ],
      "stateMutability": "view",
      "type": "function"
    },
    {
      "inputs": [],
      "name": "nextScheduleId",
      "outputs": [
        {
          "internalType": "uint256",
          "name": "",
          "type": "uint256"
        }
      ],
      "stateMutability": "view",
      "type": "function"
    },
    {
      "inputs": [
        {
          "internalType": "uint256",
          "name": "scheduleId",
          "type": "uint256"
        }
      ],
      "name": "revokeSchedule",
      "outputs": [],
      "stateMutability": "nonpayable",
      "type": "function"
    },
    {
      "inputs": [
        {
          "internalType": "uint256",
          "name": "",
          "type": "uint256"
        }
      ],
      "name": "schedules",
      "outputs": [
        {
          "internalType": "address",
          "name": "beneficiary",
          "type": "address"
        },
        {
          "internalType": "address",
          "name": "token",
          "type": "address"
        },
        {
          "internalType": "address",
          "name": "granter",
          "type": "address"
        },
        {
          "internalType": "euint64",
          "name": "totalAmount",
          "type": "bytes32"
        },
        {
          "internalType": "euint64",
          "name": "claimed",
          "type": "bytes32"
        },
        {
          "internalType": "uint256",
          "name": "startTime",
          "type": "uint256"
        },
        {
          "internalType": "uint256",
          "name": "cliffEnd",
          "type": "uint256"
        },
        {
          "internalType": "uint256",
          "name": "vestingEnd",
          "type": "uint256"
        },
        {
          "internalType": "bool",
          "name": "revoked",
          "type": "bool"
        }
      ],
      "stateMutability": "view",
      "type": "function"
    },
    {
      "inputs": [],
      "name": "vault",
      "outputs": [
        {
          "internalType": "contract ISettlementVault",
          "name": "",
          "type": "address"
        }
      ],
      "stateMutability": "view",
      "type": "function"
    }
  ],
  "bytecode": "0x6080604090808252346102ed578181611a82803803809161002082856103d1565b8339810103126102ed57610033816103f4565b61004060208093016103f4565b60017f9b779b17422d0df92223018b32b4d1fa46e071723d6817e2486d003becc55f00556001600160a01b0391821691908215801561037d575b61036c5760018060a01b0319928360035416176003551690600854161760085581516100a581610387565b5f81528251906100b4826103b6565b60038252606036848401375f6100c9836104a8565b5260056100d5836104c9565b525f6100e0836104d9565b52835180610128610115631888debd60e01b9485845260056004850152601a6024850152608060448501526084840190610475565b6003199586848303016064850152610475565b0390848173ea30c4b8b44078bbf8a6ef5b9f1ec1626c7848d993815f865af1908115610335575f9161033f575b505f5584519061016482610387565b5f8252846101d0875193610177856103b6565b60038552606036848701375f61018c866104a8565b526006610198866104c9565b525f6101a3866104d9565b526101e08951958693849389855260066004860152601a6024860152608060448601526084850190610475565b9089848303016064850152610475565b03815f855af180156103355785925f91610302575b509261027392936001555f87519161020c83610387565b81835261028289519761021e896103b6565b60038952606036898b0137836102338a6104a8565b528361023e8a6104c9565b52836102498a6104d9565b528a51988997889687958652866004870152601a6024870152608060448701526084860190610475565b91848303016064850152610475565b03925af19182156102f8575f926102c6575b50506002556102a35f54610408565b6102ae600154610408565b6102b9600254610408565b5161159890816104ea8239f35b90809250813d83116102f1575b6102dd81836103d1565b810103126102ed57515f80610294565b5f80fd5b503d6102d3565b83513d5f823e3d90fd5b83819492503d831161032e575b61031981836103d1565b810103126102ed5790518491906102736101f5565b503d61030f565b86513d5f823e3d90fd5b90508481813d8311610365575b61035681836103d1565b810103126102ed57515f610155565b503d61034c565b845163b4fa3fb360e01b8152600490fd5b508181161561007a565b602081019081106001600160401b038211176103a257604052565b634e487b7160e01b5f52604160045260245ffd5b608081019081106001600160401b038211176103a257604052565b601f909101601f19168101906001600160401b038211908210176103a257604052565b51906001600160a01b03821682036102ed57565b73ea30c4b8b44078bbf8a6ef5b9f1ec1626c7848d990813b156102ed575f91604483926040519485938492631974142760e21b845260048401523060248401525af1801561046a576104575750565b6001600160401b0381116103a257604052565b6040513d5f823e3d90fd5b9081518082526020808093019301915f5b828110610494575050505090565b835185529381019392810192600101610486565b8051156104b55760200190565b634e487b7160e01b5f52603260045260245ffd5b8051600110156104b55760400190565b8051600210156104b5576060019056fe6080806040526004361015610012575f80fd5b5f905f3560e01c9081630f038d41146111e357508063204fd3b41461079357806346ca42411461073d57806360636268146104e25780638fdd511e1461045357806396577206146103b7578063bdc6d9ab14610323578063c5ca93a7146102b0578063c695502a14610271578063c936efa714610240578063d8625b07146101bb578063f065b1c014610171578063f851a44014610148578063f93e29ac146100ee5763fbfa77cf146100c3575f80fd5b346100eb57806003193601126100eb576003546040516001600160a01b039091168152602090f35b80fd5b50346100eb5760203660031901126100eb5760043590818152600460205260018060a01b0360408220541633036101375760408160209360049352828452200154604051908152f35b6040516282b42960e81b8152600490fd5b50346100eb57806003193601126100eb576008546040516001600160a01b039091168152602090f35b50346100eb5760203660031901126100eb5760043590818152600460205260018060a01b036040822054163303610137576040816020936003935260048452200154604051908152f35b50346100eb5760203660031901126100eb576101d56111fd565b6008546001600160a01b039190821633036101375716801561022e57808252600760205260408220805460ff191660011790557eb6d3c5059e85c667aa67cfa572e42162916972ed621a4618e55dfcb4a174638280a280f35b60405163b4fa3fb360e01b8152600490fd5b50346100eb5760203660031901126100eb57602061025f60043561131d565b67ffffffffffffffff60405191168152f35b50346100eb5760203660031901126100eb5760209060ff906040906001600160a01b0361029c6111fd565b168152600784522054166040519015158152f35b50346100eb5760203660031901126100eb57604060c091600435815260046020522060018060a01b038082541691816001820154169160028201541660068201549060ff6008600785015494015416936040519586526020860152604085015260608401526080830152151560a0820152f35b50346100eb5760203660031901126100eb57604061012091600435815260046020522060018060a01b03808254169181600182015416916002820154166003820154600483015460058401549160068501549360ff600860078801549701541696604051988952602089015260408801526060870152608086015260a085015260c084015260e08301521515610100820152f35b50346100eb5760203660031901126100eb5760043580825260046020526040822060018060a01b03806002830154163314159081610444575b5061013757600801805460ff81166104325760ff191660011790557fd3dda1e90178815bfcce9e6835272f414b2353c6a301e4ea98e6a7935b74558d8280a280f35b60405163baf3f0f760e01b8152600490fd5b9050600854163314155f6103f0565b50346100eb576020806003193601126104de576001600160a01b036104766111fd565b168252600581526040822091604051809384918482549182815201918452848420935b858282106104c8575050506104b0925003836112ee565b6104c4604051928284938452830190611228565b0390f35b8554845260019586019588955093019201610499565b5080fd5b50346100eb5760a03660031901126100eb576104fc6111fd565b6024356001600160a01b038181169291839003610739576044359260843594338152600760205260ff604082205416158061072b575b6101375782841693841561022e57861561022e57600654955f1993848814610717576001880160065561057161056a60643542611310565b998a611310565b9561059661057d611460565b9461058786611388565b61059085611388565b846113e0565b6040519161012083019083821067ffffffffffffffff831117610703578a956008958d936040528b86526020860192835260408601338152606087019182526080870192835260a087019342855260c0880195865260e08801968d885261010089019a8c8c528c5260046020528060408d20995116916bffffffffffffffffffffffff60a01b92838b5416178a558160018b01915116838254161790556002890192511690825416179055516003860155516004850155516005840155516006830155516007820155019051151560ff80198354169116179055838152600560205260408120805491680100000000000000008310156106ef57509585937f1594dd6a2209b6ad045fb96b264b6aaaa5883fd444a543ccb78a95f85ada5b6d936106ca8460209a6001604097018155611213565b819291549060031b9188831b921b1916179055825191825287820152a3604051908152f35b634e487b7160e01b81526041600452602490fd5b634e487b7160e01b5f52604160045260245ffd5b634e487b7160e01b84526011600452602484fd5b508260085416331415610532565b5f80fd5b50346100eb5760403660031901126100eb576107576111fd565b6001600160a01b03168152600560205260408120805460243592908310156100eb5760206107858484611213565b90546040519160031b1c8152f35b50346107395760203660031901126107395760027f9b779b17422d0df92223018b32b4d1fa46e071723d6817e2486d003becc55f0054146111d15760027f9b779b17422d0df92223018b32b4d1fa46e071723d6817e2486d003becc55f00556004355f52600460205260405f209060018060a01b0382541633036101375760ff6008830154166104325760068201548042106104325760078301549042821161117b57505067ffffffffffffffff60645b169182156104325760038101549260405161085e8161129a565b5f81526040519161086e836112d2565b60038352606036602085013761088383611525565b52600561088f83611532565b52815160021015610ebc575f6060830152604051631888debd60e01b815291602091839182916108c391906004840161142a565b03815f5f805160206115438339815191525af1908115610e7b575f91611149575b50808415611139575b1561112b575b60405193610900856112b6565b60028552604036602087013761091585611525565b5261091f84611532565b526020610969604051946109328661129a565b5f865261097b6040519687938493631888debd60e01b855260056004860152600f6024860152608060448601526084850190611228565b83810360031901606485015290611228565b03815f5f805160206115438339815191525af1928315610e7b575f936110f7575b506040516109a98161129a565b5f8152604051906109b9826112d2565b60038252606036602084013760646109d083611525565b5260056109dc83611532565b52815160021015610ebc575f6060830152604051631888debd60e01b81529160209183918291610a1091906004840161142a565b03815f5f805160206115438339815191525af1908115610e7b575f916110c5575b508084156110b5575b156110a7575b60405193610a4d856112b6565b600285526040366020870137610a6285611525565b52610a6c84611532565b52602061096960405194610a7f8661129a565b5f8652610ab66040519687938493631888debd60e01b855260056004860152600d6024860152608060448601526084850190611228565b03815f5f805160206115438339815191525af1928315610e7b575f93611073575b50600481015492808415611063575b8115611055575b60405194610afa866112b6565b600286526040366020880137610b0f86611525565b52610b1985611532565b52602061096960405195610b2c8761129a565b5f8752610b636040519788938493631888debd60e01b85526005600486015260136024860152608060448601526084850190611228565b03815f5f805160206115438339815191525af1938415610e7b575f94611021575b50600482015481908215611011575b8015611003575b60405191610ba7836112b6565b600283526040366020850137610bbc83611525565b52610bc682611532565b52602061096960405192610bd98461129a565b5f8452610c106040519485938493631888debd60e01b85526005600486015260076024860152608060448601526084850190611228565b03815f5f805160206115438339815191525af1908115610e7b575f91610fd1575b505f5490808615610eee575b15610ee0575b8115610ed0575b60405195610c57876112d2565b600387526060366020890137610c6c87611525565b52610c7686611532565b52845160021015610ebc576060850152602061096960405195610c988761129a565b5f8752610ccf6040519788938493631888debd60e01b85526005600486015260046024860152608060448601526084850190611228565b03815f5f805160206115438339815191525af1938415610e7b575f94610e86575b5080610d00916004840155611388565b610d0e3360048301546113e0565b610d1783611388565b6003546001600160a01b03165f805160206115438339815191523b15610739576040516346ce4e4960e11b8152600481018590526001600160a01b039190911660248201525f81604481835f805160206115438339815191525af18015610e7b57610e68575b50918192610d9560018060a01b0360035416836113e0565b60035460028201546001909201546001600160a01b03928316929081169116803b15610e64578492836084926040519687958694630e78047f60e21b86526004860152336024860152604485015260648401525af18015610e5957610e45575b50336004357f83017964d41e2eb3369a74f93ce7024dc09d85d2bfa35ca86268234733b965908380a360017f9b779b17422d0df92223018b32b4d1fa46e071723d6817e2486d003becc55f005580f35b610e4e90611286565b6100eb57805f610df5565b6040513d84823e3d90fd5b8480fd5b610e73919250611286565b5f905f610d7d565b6040513d5f823e3d90fd5b9093506020813d602011610eb4575b81610ea2602093836112ee565b81010312610739575192610d00610cf0565b3d9150610e95565b634e487b7160e01b5f52603260045260245ffd5b9050610eda611460565b90610c4a565b50610ee9611460565b610c43565b9550604051610efc8161129a565b5f815260405190610f0c826112d2565b6003825260603660208401375f610f2283611525565b525f610f2d83611532565b52815160021015610ebc576109696020915f6060850152610f776040519485938493631888debd60e01b85525f6004860152601a6024860152608060448601526084850190611228565b03815f5f805160206115438339815191525af1908115610e7b575f91610f9f575b5095610c3d565b90506020813d602011610fc9575b81610fba602093836112ee565b8101031261073957515f610f98565b3d9150610fad565b90506020813d602011610ffb575b81610fec602093836112ee565b8101031261073957515f610c31565b3d9150610fdf565b5061100c611460565b610b9a565b905061101b611460565b90610b93565b9093506020813d60201161104d575b8161103d602093836112ee565b810103126107395751925f610b84565b3d9150611030565b5061105e611460565b610aed565b935061106d611460565b93610ae6565b9092506020813d60201161109f575b8161108f602093836112ee565b810103126107395751915f610ad7565b3d9150611082565b506110b0611460565b610a40565b93506110bf611460565b93610a3a565b90506020813d6020116110ef575b816110e0602093836112ee565b8101031261073957515f610a31565b3d91506110d3565b9092506020813d602011611123575b81611113602093836112ee565b810103126107395751915f61099c565b3d9150611106565b50611134611460565b6108f3565b9350611143611460565b936108ed565b90506020813d602011611173575b81611164602093836112ee565b8101031261073957515f6108e4565b3d9150611157565b8061118961118f924261125b565b9261125b565b6064820291808304606414901517156111bd576111b767ffffffffffffffff92918392611268565b16610844565b634e487b7160e01b5f52601160045260245ffd5b604051633ee5aeb560e01b8152600490fd5b34610739575f366003190112610739576020906006548152f35b600435906001600160a01b038216820361073957565b8054821015610ebc575f5260205f2001905f90565b9081518082526020808093019301915f5b828110611247575050505090565b835185529381019392810192600101611239565b919082039182116111bd57565b8115611272570490565b634e487b7160e01b5f52601260045260245ffd5b67ffffffffffffffff811161070357604052565b6020810190811067ffffffffffffffff82111761070357604052565b6060810190811067ffffffffffffffff82111761070357604052565b6080810190811067ffffffffffffffff82111761070357604052565b90601f8019910116810190811067ffffffffffffffff82111761070357604052565b919082018092116111bd57565b5f52600460205260405f206006810154908142106113825760070154908142101561137b5780611189611350924261125b565b906064810290808204606414901517156111bd5767ffffffffffffffff9161137791611268565b1690565b5050606490565b50505f90565b5f80516020611543833981519152803b1561073957604051631974142760e21b815260048101929092523060248301525f908290818381604481015b03925af18015610e7b576113d55750565b6113de90611286565b565b5f8051602061154383398151915291823b1561073957604051631974142760e21b815260048101929092526001600160a01b03166024820152905f908290818381604481016113c4565b909161144f61145d9360058452601a6020850152608060408501526080840190611228565b916060818403910152611228565b90565b60405161146c8161129a565b5f81526040519061147c826112d2565b6003825260603660208401375f61149283611525565b52600561149e83611532565b52815160021015610ebc575f6060830152604051631888debd60e01b815291602091839182916114d291906004840161142a565b03815f5f805160206115438339815191525af1908115610e7b575f916114f6575090565b90506020813d60201161151d575b81611511602093836112ee565b81010312610739575190565b3d9150611504565b805115610ebc5760200190565b805160011015610ebc576040019056fe000000000000000000000000ea30c4b8b44078bbf8a6ef5b9f1ec1626c7848d9a264697066735822122074eb0727238fe84950cec6464cfbb539c93b6686da8b1596b04fd9b869a698fc64736f6c63430008190033",
  "linkReferences": {},
  "deployedLinkReferences": {}
}